{"abi":[{"type":"function","name":"documentCount","inputs":[],"outputs":[{"name":"","type":"uint256","internalType":"uint256"}],"stateMutability":"view"},{"type":"function","name":"documentHashes","inputs":[{"name":"","type":"uint256","internalType":"uint256"}],"outputs":[{"name":"","type":"bytes32","internalType":"bytes32"}],"stateMutability":"view"},{"type":"function","name":"documents","inputs":[{"name":"","type":"bytes32","internalType":"bytes32"}],"outputs":[{"name":"hash","type":"bytes32","internalType":"bytes32"},{"name":"timestamp","type":"uint256","internalType":"uint256"},{"name":"signer","type":"address","internalType":"address"},{"name":"signature","type":"bytes","internalType":"bytes"}],"stateMutability":"view"},{"type":"function","name":"getDocumentCount","inputs":[],"outputs":[{"name":"","type":"uint256","internalType":"uint256"}],"stateMutability":"view"},{"type":"function","name":"getDocumentHashByIndex","inputs":[{"name":"_index","type":"uint256","internalType":"uint256"}],"outputs":[{"name":"","type":"bytes32","internalType":"bytes32"}],"stateMutability":"view"},{"type":"function","name":"getDocumentInfo","inputs":[{"name":"_hash","type":"bytes32","internalType":"bytes32"}],"outputs":[{"name":"","type":"tuple","internalType":"struct DocumentRegistry.Document","components":[{"name":"hash","type":"bytes32","internalType":"bytes32"},{"name":"timestamp","type":"uint256","internalType":"uint256"},{"name":"signer","type":"address","internalType":"address"},{"name":"signature","type":"bytes","internalType":"bytes"}]}],"stateMutability":"view"},{"type":"function","name":"isDocumentStored","inputs":[{"name":"_hash","type":"bytes32","internalType":"bytes32"}],"outputs":[{"name":"","type":"bool","internalType":"bool"}],"stateMutability":"view"},{"type":"function","name":"storeDocumentHash","inputs":[{"name":"_hash","type":"bytes32","internalType":"bytes32"},{"name":"_timestamp","type":"uint256","internalType":"uint256"},{"name":"_signature","type":"bytes","internalType":"bytes"},{"name":"_signer","type":"address","internalType":"address"}],"outputs":[],"stateMutability":"nonpayable"},{"type":"function","name":"verifyDocument","inputs":[{"name":"_hash","type":"bytes32","internalType":"bytes32"},{"name":"_signer","type":"address","internalType":"address"},{"name":"_signature","type":"bytes","internalType":"bytes"}],"outputs":[{"name":"","type":"bool","internalType":"bool"}],"stateMutability":"nonpayable"},{"type":"event","name":"DocumentStored","inputs":[{"name":"hash","type":"bytes32","indexed":true,"internalType":"bytes32"},{"name":"signer","type":"address","indexed":true,"internalType":"address"},{"name":"timestamp","type":"uint256","indexed":false,"internalType":"uint256"}],"anonymous":false},{"type":"event","name":"DocumentVerified","inputs":[{"name":"hash","type":"bytes32","indexed":true,"internalType":"bytes32"},{"name":"signer","type":"address","indexed":true,"internalType":"address"},{"name":"verified","type":"bool","indexed":false,"internalType":"bool"}],"anonymous":false}],"bytecode":{"object":"0x608060405234801561001057600080fd5b50610bc7806100206000396000f3fe608060405234801561001057600080fd5b50600436106100935760003560e01c8063757d2c6b11610066578063757d2c6b146101195780638e383c6b1461012e5780639f788d1014610141578063a5b16b2e14610154578063dd4ad4b61461015c57610093565b8063090b0a30146100985780632b2805db146100c15780633d1c2273146100e457806346fad899146100f9575b600080fd5b6100ab6100a636600461087a565b61016f565b6040516100b89190610ad6565b60405180910390f35b6100d46100cf36600461087a565b610299565b6040516100b894939291906109a5565b6100ec610356565b6040516100b8919061099c565b61010c61010736600461087a565b61035c565b6040516100b89190610991565b61012c6101273660046108e7565b61037f565b005b6100ec61013c36600461087a565b610502565b6100ec61014f36600461087a565b610523565b6100ec61057a565b61010c61016a366004610892565b610580565b610177610723565b60008281526020819052604090206002015482906001600160a01b03166101b95760405162461bcd60e51b81526004016101b090610a9f565b60405180910390fd5b6000838152602081815260409182902082516080810184528154815260018201549281019290925260028101546001600160a01b03169282019290925260038201805491929160608401919061020e90610b1f565b80601f016020809104026020016040519081016040528092919081815260200182805461023a90610b1f565b80156102875780601f1061025c57610100808354040283529160200191610287565b820191906000526020600020905b81548152906001019060200180831161026a57829003601f168201915b50505050508152505091505b50919050565b6000602081905290815260409020805460018201546002830154600384018054939492936001600160a01b0390921692916102d390610b1f565b80601f01602080910402602001604051908101604052809291908181526020018280546102ff90610b1f565b801561034c5780601f106103215761010080835404028352916020019161034c565b820191906000526020600020905b81548152906001019060200180831161032f57829003601f168201915b5050505050905084565b60025490565b6000818152602081905260409020600201546001600160a01b031615155b919050565b60008481526020819052604090206002015484906001600160a01b0316156103b95760405162461bcd60e51b81526004016101b090610a0c565b6001600160a01b0382166103df5760405162461bcd60e51b81526004016101b0906109dc565b846103fc5760405162461bcd60e51b81526004016101b090610a43565b6040805160808101825286815260208082018781526001600160a01b038681168486019081526060850189815260008c8152808652969096208551815592516001840155516002830180546001600160a01b031916919092161790559251805192939261046f9260038501920190610749565b505060018054808201825560009182527fb10e2d527612073b26eecdfd717e6a320cf44b4afac2b0732d9fcbe2b7fa0cf601879055600280549250906104b483610b54565b9190505550816001600160a01b0316857f26ad08a07a21a75bfa696129b53a22d710a416ca3941ed4110a27e41c2ac679a866040516104f3919061099c565b60405180910390a35050505050565b6001818154811061051257600080fd5b600091825260209091200154905081565b60015460009082106105475760405162461bcd60e51b81526004016101b090610a72565b6001828154811061056857634e487b7160e01b600052603260045260246000fd5b90600052602060002001549050919050565b60025481565b60008381526020819052604081206002015484906001600160a01b03166105b95760405162461bcd60e51b81526004016101b090610a9f565b60008581526020818152604080832081516080810183528154815260018201549381019390935260028101546001600160a01b03169183019190915260038101805460608401919061060a90610b1f565b80601f016020809104026020016040519081016040528092919081815260200182805461063690610b1f565b80156106835780601f1061065857610100808354040283529160200191610683565b820191906000526020600020905b81548152906001019060200180831161066657829003601f168201915b505050505081525050905060008682600001511480156106b85750856001600160a01b031682604001516001600160a01b0316145b80156106d557508480519060200120826060015180519060200120145b9050856001600160a01b0316877f6894ebbaf406311560473c5438f7c75d70dc611e024968e8f8596dbd034c5084836040516107119190610991565b60405180910390a39695505050505050565b604080516080810182526000808252602082018190529181019190915260608082015290565b82805461075590610b1f565b90600052602060002090601f01602090048101928261077757600085556107bd565b82601f1061079057805160ff19168380011785556107bd565b828001600101855582156107bd579182015b828111156107bd5782518255916020019190600101906107a2565b506107c99291506107cd565b5090565b5b808211156107c957600081556001016107ce565b80356001600160a01b038116811461037a57600080fd5b600082601f830112610809578081fd5b813567ffffffffffffffff8082111561082457610824610b7b565b604051601f8301601f19168101602001828111828210171561084857610848610b7b565b60405282815284830160200186101561085f578384fd5b82602086016020830137918201602001929092529392505050565b60006020828403121561088b578081fd5b5035919050565b6000806000606084860312156108a6578182fd5b833592506108b6602085016107e2565b9150604084013567ffffffffffffffff8111156108d1578182fd5b6108dd868287016107f9565b9150509250925092565b600080600080608085870312156108fc578081fd5b8435935060208501359250604085013567ffffffffffffffff811115610920578182fd5b61092c878288016107f9565b92505061093b606086016107e2565b905092959194509250565b60008151808452815b8181101561096b5760208185018101518683018201520161094f565b8181111561097c5782602083870101525b50601f01601f19169290920160200192915050565b901515815260200190565b90815260200190565b600085825284602083015260018060a01b0384166040830152608060608301526109d26080830184610946565b9695505050505050565b602080825260169082015275496e76616c6964207369676e6572206164647265737360501b604082015260600190565b60208082526017908201527f446f63756d656e7420616c726561647920657869737473000000000000000000604082015260600190565b602080825260159082015274092dcecc2d8d2c840c8dec6eadacadce840d0c2e6d605b1b604082015260600190565b602080825260139082015272496e646578206f7574206f6620626f756e647360681b604082015260600190565b60208082526017908201527f446f63756d656e7420646f6573206e6f74206578697374000000000000000000604082015260600190565b600060208252825160208301526020830151604083015260018060a01b0360408401511660608301526060830151608080840152610b1760a0840182610946565b949350505050565b600281046001821680610b3357607f821691505b6020821081141561029357634e487b7160e01b600052602260045260246000fd5b6000600019821415610b7457634e487b7160e01b81526011600452602481fd5b5060010190565b634e487b7160e01b600052604160045260246000fdfea26469706673582212206b996b9f444f563eb1585f851a186b25bd18a4ac13eff4d245ed261323cc3e0364736f6c63430008000033","linkReferences":{}},"methodIdentifiers":{"documentCount()":"a5b16b2e","documentHashes(uint256)":"8e383c6b","documents(bytes32)":"2b2805db","getDocumentCount()":"3d1c2273","getDocumentHashByIndex(uint256)":"9f788d10","getDocumentInfo(bytes32)":"090b0a30","isDocumentStored(bytes32)":"46fad899","storeDocumentHash(bytes32,uint256,bytes,address)":"757d2c6b","verifyDocument(bytes32,address,bytes)":"dd4ad4b6"},"id":19}